{
  "contractName": "EmploymentContractFactory",
  "abi": [
    {
      "anonymous": false,
      "inputs": [
        {
          "indexed": false,
          "internalType": "address",
          "name": "contractAddress",
          "type": "address"
        },
        {
          "indexed": false,
          "internalType": "address",
          "name": "employer",
          "type": "address"
        }
      ],
      "name": "ContractCreated",
      "type": "event"
    },
    {
      "inputs": [
        {
          "internalType": "uint256",
          "name": "",
          "type": "uint256"
        }
      ],
      "name": "employmentContracts",
      "outputs": [
        {
          "internalType": "contract EmploymentContract",
          "name": "",
          "type": "address"
        }
      ],
      "stateMutability": "view",
      "type": "function",
      "constant": true
    },
    {
      "inputs": [
        {
          "internalType": "uint256",
          "name": "_salary",
          "type": "uint256"
        },
        {
          "internalType": "uint256",
          "name": "_bonus",
          "type": "uint256"
        },
        {
          "internalType": "uint256",
          "name": "_vacationPay",
          "type": "uint256"
        },
        {
          "internalType": "uint256",
          "name": "_sickLeavePay",
          "type": "uint256"
        },
        {
          "internalType": "uint256",
          "name": "_startDate",
          "type": "uint256"
        },
        {
          "internalType": "uint256",
          "name": "_endDate",
          "type": "uint256"
        },
        {
          "internalType": "uint256",
          "name": "_penalty",
          "type": "uint256"
        },
        {
          "internalType": "uint256",
          "name": "_paymentInterval",
          "type": "uint256"
        },
        {
          "internalType": "address",
          "name": "_reserve",
          "type": "address"
        }
      ],
      "name": "createEmploymentContract",
      "outputs": [],
      "stateMutability": "nonpayable",
      "type": "function"
    },
    {
      "inputs": [],
      "name": "getContracts",
      "outputs": [
        {
          "internalType": "contract EmploymentContract[]",
          "name": "",
          "type": "address[]"
        }
      ],
      "stateMutability": "view",
      "type": "function",
      "constant": true
    }
  ],
  "bytecode": "0x608060405234801561001057600080fd5b506123a1806100206000396000f3fe60806040523480156200001157600080fd5b5060043610620000465760003560e01c806322516eb0146200004b578063c3a2a93a146200006b578063fab21ab1146200008d575b600080fd5b620000696004803603810190620000639190620002f4565b620000c3565b005b62000075620001bc565b60405162000084919062000572565b60405180910390f35b620000ab6004803603810190620000a59190620002c8565b6200024c565b604051620000ba919062000596565b60405180910390f35b6000338a8a8a8a8a8a8a8a8a604051620000dd906200028c565b620000f29a99989796959493929190620004c2565b604051809103906000f0801580156200010f573d6000803e3d6000fd5b5090506000819080600181540180825580915050600190039060005260206000200160009091909190916101000a81548173ffffffffffffffffffffffffffffffffffffffff021916908373ffffffffffffffffffffffffffffffffffffffff1602179055507f2d49c67975aadd2d389580b368cfff5b49965b0bd5da33c144922ce01e7a4d7b8133604051620001a892919062000495565b60405180910390a150505050505050505050565b606060008054806020026020016040519081016040528092919081815260200182805480156200024257602002820191906000526020600020905b8160009054906101000a900473ffffffffffffffffffffffffffffffffffffffff1673ffffffffffffffffffffffffffffffffffffffff1681526020019060010190808311620001f7575b5050505050905090565b600081815481106200025d57600080fd5b906000526020600020016000915054906101000a900473ffffffffffffffffffffffffffffffffffffffff1681565b611ce5806200068783390190565b600081359050620002ab8162000652565b92915050565b600081359050620002c2816200066c565b92915050565b600060208284031215620002db57600080fd5b6000620002eb84828501620002b1565b91505092915050565b60008060008060008060008060006101208a8c0312156200031457600080fd5b6000620003248c828d01620002b1565b9950506020620003378c828d01620002b1565b98505060406200034a8c828d01620002b1565b97505060606200035d8c828d01620002b1565b9650506080620003708c828d01620002b1565b95505060a0620003838c828d01620002b1565b94505060c0620003968c828d01620002b1565b93505060e0620003a98c828d01620002b1565b925050610100620003bd8c828d016200029a565b9150509295985092959850929598565b6000620003db838362000462565b60208301905092915050565b620003f281620005ec565b82525050565b60006200040582620005c3565b620004118185620005db565b93506200041e83620005b3565b8060005b8381101562000455578151620004398882620003cd565b97506200044683620005ce565b92505060018101905062000422565b5085935050505092915050565b6200046d816200062a565b82525050565b6200047e816200062a565b82525050565b6200048f8162000620565b82525050565b6000604082019050620004ac6000830185620003e7565b620004bb6020830184620003e7565b9392505050565b600061014082019050620004da600083018d620003e7565b620004e9602083018c62000484565b620004f8604083018b62000484565b62000507606083018a62000484565b62000516608083018962000484565b6200052560a083018862000484565b6200053460c083018762000484565b6200054360e083018662000484565b6200055361010083018562000484565b62000563610120830184620003e7565b9b9a5050505050505050505050565b600060208201905081810360008301526200058e8184620003f8565b905092915050565b6000602082019050620005ad600083018462000473565b92915050565b6000819050602082019050919050565b600081519050919050565b6000602082019050919050565b600082825260208201905092915050565b6000620005f98262000600565b9050919050565b600073ffffffffffffffffffffffffffffffffffffffff82169050919050565b6000819050919050565b600062000637826200063e565b9050919050565b60006200064b8262000600565b9050919050565b6200065d81620005ec565b81146200066957600080fd5b50565b620006778162000620565b81146200068357600080fd5b5056fe60806040526000600b60006101000a81548160ff0219169083151502179055503480156200002c57600080fd5b5060405162001ce538038062001ce583398181016040528101906200005291906200027b565b83851062000097576040517f08c379a00000000000000000000000000000000000000000000000000000000081526004016200008e9062000457565b60405180910390fd5b600073ffffffffffffffffffffffffffffffffffffffff168a73ffffffffffffffffffffffffffffffffffffffff1614156200010a576040517f08c379a0000000000000000000000000000000000000000000000000000000008152600401620001019062000479565b60405180910390fd5b600073ffffffffffffffffffffffffffffffffffffffff168173ffffffffffffffffffffffffffffffffffffffff1614156200017d576040517f08c379a000000000000000000000000000000000000000000000000000000000815260040162000174906200049b565b60405180910390fd5b896000806101000a81548173ffffffffffffffffffffffffffffffffffffffff021916908373ffffffffffffffffffffffffffffffffffffffff1602179055508860028190555087600381905550866004819055508560058190555084600781905550836008819055508260068190555081600a8190555080600b60016101000a81548173ffffffffffffffffffffffffffffffffffffffff021916908373ffffffffffffffffffffffffffffffffffffffff160217905550426009819055505050505050505050505062000540565b6000815190506200025e816200050c565b92915050565b600081519050620002758162000526565b92915050565b6000806000806000806000806000806101408b8d0312156200029c57600080fd5b6000620002ac8d828e016200024d565b9a50506020620002bf8d828e0162000264565b9950506040620002d28d828e0162000264565b9850506060620002e58d828e0162000264565b9750506080620002f88d828e0162000264565b96505060a06200030b8d828e0162000264565b95505060c06200031e8d828e0162000264565b94505060e0620003318d828e0162000264565b935050610100620003458d828e0162000264565b925050610120620003598d828e016200024d565b9150509295989b9194979a5092959850565b60006200037a602283620004bd565b91507f53746172742064617465206d757374206265206265666f726520656e6420646160008301527f74650000000000000000000000000000000000000000000000000000000000006020830152604082019050919050565b6000620003e2601f83620004bd565b91507f456d706c6f79657220616464726573732063616e6e6f74206265207a65726f006000830152602082019050919050565b600062000424601e83620004bd565b91507f5265736572766520616464726573732063616e6e6f74206265207a65726f00006000830152602082019050919050565b6000602082019050818103600083015262000472816200036b565b9050919050565b600060208201905081810360008301526200049481620003d3565b9050919050565b60006020820190508181036000830152620004b68162000415565b9050919050565b600082825260208201905092915050565b6000620004db82620004e2565b9050919050565b600073ffffffffffffffffffffffffffffffffffffffff82169050919050565b6000819050919050565b6200051781620004ce565b81146200052357600080fd5b50565b620005318162000502565b81146200053d57600080fd5b50565b61179580620005506000396000f3fe60806040526004361061010d5760003560e01c8063ae200e7911610095578063cd3293de11610064578063cd3293de1461030e578063d8d7970014610339578063e19bc3eb14610350578063e66a6b221461035a578063ed7a1fea1461038557610114565b8063ae200e7914610283578063bad68548146102ae578063bd097e21146102d9578063c24a0f8b146102e357610114565b80632fd949ca116100dc5780632fd949ca146101c257806375b4d78c146101d957806379e93bf8146102045780637aeabb391461022d578063a0a1a7d71461025857610114565b80630397b652146101165780630b97bc86146101415780630edd2ffc1461016c5780631cc1cf461461019757610114565b3661011457005b005b34801561012257600080fd5b5061012b6103b0565b6040516101389190611595565b60405180910390f35b34801561014d57600080fd5b506101566103b6565b6040516101639190611595565b60405180910390f35b34801561017857600080fd5b506101816103bc565b60405161018e9190611595565b60405180910390f35b3480156101a357600080fd5b506101ac6103c2565b6040516101b99190611595565b60405180910390f35b3480156101ce57600080fd5b506101d76103c8565b005b3480156101e557600080fd5b506101ee6106cd565b6040516101fb9190611595565b60405180910390f35b34801561021057600080fd5b5061022b60048036038101906102269190610e99565b6106d3565b005b34801561023957600080fd5b506102426108c5565b60405161024f9190611595565b60405180910390f35b34801561026457600080fd5b5061026d6108cb565b60405161027a919061139f565b60405180910390f35b34801561028f57600080fd5b506102986108f1565b6040516102a5919061139f565b60405180910390f35b3480156102ba57600080fd5b506102c3610915565b6040516102d09190611595565b60405180910390f35b6102e161091b565b005b3480156102ef57600080fd5b506102f8610a3c565b6040516103059190611595565b60405180910390f35b34801561031a57600080fd5b50610323610a42565b604051610330919061139f565b60405180910390f35b34801561034557600080fd5b5061034e610a68565b005b610358610cdb565b005b34801561036657600080fd5b5061036f610e6b565b60405161037c91906113ba565b60405180910390f35b34801561039157600080fd5b5061039a610e7e565b6040516103a79190611595565b60405180910390f35b60025481565b60075481565b60065481565b600a5481565b60011515600b60009054906101000a900460ff1615151461041e576040517f08c379a000000000000000000000000000000000000000000000000000000000815260040161041590611495565b60405180910390fd5b6008544210610462576040517f08c379a0000000000000000000000000000000000000000000000000000000008152600401610459906114b5565b60405180910390fd5b60008054906101000a900473ffffffffffffffffffffffffffffffffffffffff1673ffffffffffffffffffffffffffffffffffffffff163373ffffffffffffffffffffffffffffffffffffffff16141561056b576006544710156104fb576040517f08c379a00000000000000000000000000000000000000000000000000000000081526004016104f290611555565b60405180910390fd5b600160009054906101000a900473ffffffffffffffffffffffffffffffffffffffff1673ffffffffffffffffffffffffffffffffffffffff166108fc6006549081150290604051600060405180830381858888f19350505050158015610565573d6000803e3d6000fd5b506106b0565b600160009054906101000a900473ffffffffffffffffffffffffffffffffffffffff1673ffffffffffffffffffffffffffffffffffffffff163373ffffffffffffffffffffffffffffffffffffffff16141561067457600654471015610606576040517f08c379a00000000000000000000000000000000000000000000000000000000081526004016105fd90611555565b60405180910390fd5b60008054906101000a900473ffffffffffffffffffffffffffffffffffffffff1673ffffffffffffffffffffffffffffffffffffffff166108fc6006549081150290604051600060405180830381858888f1935050505015801561066e573d6000803e3d6000fd5b506106af565b6040517f08c379a00000000000000000000000000000000000000000000000000000000081526004016106a690611475565b60405180910390fd5b5b6000600b60006101000a81548160ff021916908315150217905550565b60035481565b60008054906101000a900473ffffffffffffffffffffffffffffffffffffffff1673ffffffffffffffffffffffffffffffffffffffff163373ffffffffffffffffffffffffffffffffffffffff1614610761576040517f08c379a000000000000000000000000000000000000000000000000000000000815260040161075890611535565b60405180910390fd5b600b60009054906101000a900460ff16156107b1576040517f08c379a00000000000000000000000000000000000000000000000000000000081526004016107a890611515565b60405180910390fd5b6007544210156107f6576040517f08c379a00000000000000000000000000000000000000000000000000000000081526004016107ed906113f5565b60405180910390fd5b600073ffffffffffffffffffffffffffffffffffffffff168173ffffffffffffffffffffffffffffffffffffffff161415610866576040517f08c379a000000000000000000000000000000000000000000000000000000000815260040161085d90611435565b60405180910390fd5b80600160006101000a81548173ffffffffffffffffffffffffffffffffffffffff021916908373ffffffffffffffffffffffffffffffffffffffff1602179055506001600b60006101000a81548160ff02191690831515021790555050565b60095481565b600160009054906101000a900473ffffffffffffffffffffffffffffffffffffffff1681565b60008054906101000a900473ffffffffffffffffffffffffffffffffffffffff1681565b60055481565b60008054906101000a900473ffffffffffffffffffffffffffffffffffffffff1673ffffffffffffffffffffffffffffffffffffffff163373ffffffffffffffffffffffffffffffffffffffff16146109a9576040517f08c379a00000000000000000000000000000000000000000000000000000000081526004016109a090611535565b60405180910390fd5b600034116109ec576040517f08c379a00000000000000000000000000000000000000000000000000000000081526004016109e390611575565b60405180910390fd5b3373ffffffffffffffffffffffffffffffffffffffff167f0939f6f4877faf071412e527bc4c6d0bd65ad077e52b57334f7765265647a7f134604051610a329190611595565b60405180910390a2565b60085481565b600b60019054906101000a900473ffffffffffffffffffffffffffffffffffffffff1681565b60008054906101000a900473ffffffffffffffffffffffffffffffffffffffff1673ffffffffffffffffffffffffffffffffffffffff163373ffffffffffffffffffffffffffffffffffffffff1614610af6576040517f08c379a0000000000000000000000000000000000000000000000000000000008152600401610aed90611535565b60405180910390fd5b60011515600b60009054906101000a900460ff16151514610b4c576040517f08c379a0000000000000000000000000000000000000000000000000000000008152600401610b4390611495565b60405180910390fd5b600a54600954610b5c91906115c1565b421015610b9e576040517f08c379a0000000000000000000000000000000000000000000000000000000008152600401610b95906114f5565b60405180910390fd5b6008544210610be2576040517f08c379a0000000000000000000000000000000000000000000000000000000008152600401610bd990611455565b60405180910390fd5b6000600a546301e13380610bf69190611617565b600c600254610c059190611648565b610c0f9190611617565b905080471015610c54576040517f08c379a0000000000000000000000000000000000000000000000000000000008152600401610c4b90611555565b60405180910390fd5b600a5460096000828254610c6891906115c1565b92505081905550600160009054906101000a900473ffffffffffffffffffffffffffffffffffffffff1673ffffffffffffffffffffffffffffffffffffffff166108fc829081150290604051600060405180830381858888f19350505050158015610cd7573d6000803e3d6000fd5b5050565b600160009054906101000a900473ffffffffffffffffffffffffffffffffffffffff1673ffffffffffffffffffffffffffffffffffffffff163373ffffffffffffffffffffffffffffffffffffffff1614610d6b576040517f08c379a0000000000000000000000000000000000000000000000000000000008152600401610d62906113d5565b60405180910390fd5b600b60009054906101000a900460ff16610dba576040517f08c379a0000000000000000000000000000000000000000000000000000000008152600401610db1906114d5565b60405180910390fd5b6006543414610dfe576040517f08c379a0000000000000000000000000000000000000000000000000000000008152600401610df590611415565b60405180910390fd5b600b60019054906101000a900473ffffffffffffffffffffffffffffffffffffffff1673ffffffffffffffffffffffffffffffffffffffff166108fc6006549081150290604051600060405180830381858888f19350505050158015610e68573d6000803e3d6000fd5b50565b600b60009054906101000a900460ff1681565b60045481565b600081359050610e9381611748565b92915050565b600060208284031215610eab57600080fd5b6000610eb984828501610e84565b91505092915050565b610ecb816116a2565b82525050565b610eda816116b4565b82525050565b6000610eed6025836115b0565b91507f4f6e6c7920656d706c6f7965652063616e20706572666f726d2074686973206160008301527f6374696f6e0000000000000000000000000000000000000000000000000000006020830152604082019050919050565b6000610f536028836115b0565b91507f436f6e7472616374207374617274206461746520686173206e6f74206265656e60008301527f20726561636865640000000000000000000000000000000000000000000000006020830152604082019050919050565b6000610fb96025836115b0565b91507f456d706c6f796565206d7573742073656e64207468652070656e616c7479206160008301527f6d6f756e740000000000000000000000000000000000000000000000000000006020830152604082019050919050565b600061101f601f836115b0565b91507f456d706c6f79656520616464726573732063616e6e6f74206265207a65726f006000830152602082019050919050565b600061105f6012836115b0565b91507f436f6e74726163742068617320656e64656400000000000000000000000000006000830152602082019050919050565b600061109f6034836115b0565b91507f4f6e6c7920656d706c6f796572206f7220656d706c6f7965652063616e20746560008301527f726d696e6174652074686520636f6e74726163740000000000000000000000006020830152604082019050919050565b60006111056026836115b0565b91507f436f6e7472616374206973206e6f74207369676e656420627920656d706c6f7960008301527f65652079657400000000000000000000000000000000000000000000000000006020830152604082019050919050565b600061116b601a836115b0565b91507f436f6e74726163742068617320616c726561647920656e6465640000000000006000830152602082019050919050565b60006111ab6029836115b0565b91507f436f6e7472616374206d757374206265207369676e656420627920656d706c6f60008301527f79657220666972737400000000000000000000000000000000000000000000006020830152604082019050919050565b6000611211601f836115b0565b91507f5061796d656e7420696e74657276616c20686173206e6f7420706173736564006000830152602082019050919050565b60006112516017836115b0565b91507f436f6e747261637420616c7265616479207369676e65640000000000000000006000830152602082019050919050565b60006112916025836115b0565b91507f4f6e6c7920656d706c6f7965722063616e20706572666f726d2074686973206160008301527f6374696f6e0000000000000000000000000000000000000000000000000000006020830152604082019050919050565b60006112f7601d836115b0565b91507f496e73756666696369656e7420636f6e74726163742062616c616e63650000006000830152602082019050919050565b60006113376029836115b0565b91507f4d7573742073656e6420736f6d6520657468657220746f2066756e642074686560008301527f20636f6e747261637400000000000000000000000000000000000000000000006020830152604082019050919050565b611399816116e0565b82525050565b60006020820190506113b46000830184610ec2565b92915050565b60006020820190506113cf6000830184610ed1565b92915050565b600060208201905081810360008301526113ee81610ee0565b9050919050565b6000602082019050818103600083015261140e81610f46565b9050919050565b6000602082019050818103600083015261142e81610fac565b9050919050565b6000602082019050818103600083015261144e81611012565b9050919050565b6000602082019050818103600083015261146e81611052565b9050919050565b6000602082019050818103600083015261148e81611092565b9050919050565b600060208201905081810360008301526114ae816110f8565b9050919050565b600060208201905081810360008301526114ce8161115e565b9050919050565b600060208201905081810360008301526114ee8161119e565b9050919050565b6000602082019050818103600083015261150e81611204565b9050919050565b6000602082019050818103600083015261152e81611244565b9050919050565b6000602082019050818103600083015261154e81611284565b9050919050565b6000602082019050818103600083015261156e816112ea565b9050919050565b6000602082019050818103600083015261158e8161132a565b9050919050565b60006020820190506115aa6000830184611390565b92915050565b600082825260208201905092915050565b60006115cc826116e0565b91506115d7836116e0565b9250827fffffffffffffffffffffffffffffffffffffffffffffffffffffffffffffffff0382111561160c5761160b6116ea565b5b828201905092915050565b6000611622826116e0565b915061162d836116e0565b92508261163d5761163c611719565b5b828204905092915050565b6000611653826116e0565b915061165e836116e0565b9250817fffffffffffffffffffffffffffffffffffffffffffffffffffffffffffffffff0483118215151615611697576116966116ea565b5b828202905092915050565b60006116ad826116c0565b9050919050565b60008115159050919050565b600073ffffffffffffffffffffffffffffffffffffffff82169050919050565b6000819050919050565b7f4e487b7100000000000000000000000000000000000000000000000000000000600052601160045260246000fd5b7f4e487b7100000000000000000000000000000000000000000000000000000000600052601260045260246000fd5b611751816116a2565b811461175c57600080fd5b5056fea264697066735822122030a6d65a319dee114f66d1f4cb1f5908110d91afae3769495efca2cf85dda02164736f6c63430008000033a26469706673582212209230d7cd25c0a5af5d9fae48f31849d0e1004f9213177def7bef2dcd0bfb4ee764736f6c63430008000033",
  "immutableReferences": {},
  "source": "pragma solidity ^0.8.0;\n\n/// @title Employment Contract\n/// @notice This contract manages the employment relationship between an employer and an employee.\ncontract EmploymentContract {\n    address public employer;       // Employer's address\n    address public employee;       // Employee's address\n\n    uint256 public salary;         // Monthly salary\n    uint256 public bonus;          // Bonus\n    uint256 public vacationPay;    // Vacation pay\n    uint256 public sickLeavePay;   // Sick leave pay\n    uint256 public penalty;        // Penalty for contract termination\n\n    uint256 public startDate;       // Contract start date\n    uint256 public endDate;         // Contract end date\n    uint256 public lastPaymentDate; // Last payment date\n    uint256 public paymentInterval; // Payment interval\n\n    bool public isSigned = false;  // Contract signed status\n\n    address public reserve;        // Reserve storage for penalty\n\n    event ContractFunded(address indexed from, uint256 amount);\n\n    /// @dev Modifier to check that the action is performed only by the employer\n    modifier onlyEmployer() {\n        require(msg.sender == employer, \"Only employer can perform this action\");\n        _;\n    }\n\n    /// @dev Modifier to check that the action is performed only by the employee\n    modifier onlyEmployee() {\n        require(msg.sender == employee, \"Only employee can perform this action\");\n        _;\n    }\n\n    /// @dev Modifier to check that the contract is signed\n    modifier isContractSigned() {\n        require(isSigned == true, \"Contract is not signed by employee yet\");\n        _;\n    }\n\n    /// @notice Contract constructor\n    /// @param _employer Employer's address\n    /// @param _salary Monthly salary\n    /// @param _bonus Bonus\n    /// @param _vacationPay Vacation pay\n    /// @param _sickLeavePay Sick leave pay\n    /// @param _startDate Contract start date\n    /// @param _endDate Contract end date\n    /// @param _penalty Penalty for contract termination\n    constructor(\n        address _employer,\n        uint256 _salary,\n        uint256 _bonus,\n        uint256 _vacationPay,\n        uint256 _sickLeavePay,\n        uint256 _startDate,\n        uint256 _endDate,\n        uint256 _penalty,\n        uint256 _paymentInterval,\n        address _reserve\n    ) {\n        require(_startDate < _endDate, \"Start date must be before end date\");\n        require(_employer != address(0), \"Employer address cannot be zero\");\n        require(_reserve != address(0), \"Reserve address cannot be zero\");\n\n        employer = _employer;\n        salary = _salary;\n        bonus = _bonus;\n        vacationPay = _vacationPay;\n        sickLeavePay = _sickLeavePay;\n        startDate = _startDate;\n        endDate = _endDate;\n        penalty = _penalty;\n        paymentInterval = _paymentInterval;\n        reserve = _reserve;\n        lastPaymentDate = block.timestamp; // Contract starts upon deployment\n    }\n\n    /// @notice Function for the employee to sign the contract\n    /// @param _employee Employee's address\n    function signContract(address _employee) public onlyEmployer {\n        require(!isSigned, \"Contract already signed\");\n        require(block.timestamp >= startDate, \"Contract start date has not been reached\");\n        require(_employee != address(0), \"Employee address cannot be zero\");\n        employee = _employee;\n        isSigned = true;\n    }\n\n    /// @notice Function for the employee to confirm their signature\n    function confirmEmployeeSignature() public payable onlyEmployee {\n        require(isSigned, \"Contract must be signed by employer first\");\n        require(msg.value == penalty, \"Employee must send the penalty amount\");\n\n        payable(reserve).transfer(penalty);\n    }\n\n    /// @notice Function for weekly salary payment\n    function makePayment() public onlyEmployer isContractSigned {\n        require(block.timestamp >= lastPaymentDate + paymentInterval, \"Payment interval has not passed\");\n        require(block.timestamp < endDate, \"Contract has ended\");\n\n        uint256 paymentAmount = (salary * 12) / (365 days / paymentInterval);\n        require(address(this).balance >= paymentAmount, \"Insufficient contract balance\");\n\n        lastPaymentDate += paymentInterval;\n        payable(employee).transfer(paymentAmount);\n    }\n\n    /// @notice Function to terminate the contract\n    function terminateContract() public isContractSigned {\n        require(block.timestamp < endDate, \"Contract has already ended\");\n\n        if (msg.sender == employer) {\n            require(address(this).balance >= penalty, \"Insufficient contract balance\");\n            payable(employee).transfer(penalty);\n        } else if (msg.sender == employee) {\n            require(address(this).balance >= penalty, \"Insufficient contract balance\");\n            payable(employer).transfer(penalty);\n        } else {\n            revert(\"Only employer or employee can terminate the contract\");\n        }\n\n        isSigned = false;\n    }\n\n    /// @notice Function to fund the contract\n    function fundContract() public payable onlyEmployer {\n        // The employer can fund the contract by sending funds to the contract address.\n        // These funds will be used for salary payments and other payments to the employee.\n        require(msg.value > 0, \"Must send some ether to fund the contract\");\n\n        // Log the contract funding\n        emit ContractFunded(msg.sender, msg.value);\n    }\n\n    /// @notice Function to receive funds by the contract\n    receive() external payable {\n        // This function is called when the contract receives funds without data.\n        // For example, when simply transferring ETH to the contract address.\n        // The funds will be credited to the contract balance and can be used for payments.\n    }\n\n    /// @notice Function to handle incorrect calls\n    fallback() external payable {\n        // This function is called when the contract receives funds with data\n        // or when a function that does not exist in the contract is called.\n        // The funds will be credited to the contract balance and can be used for payments.\n    }\n}\n\n/// @title Employment Contract Factory\n/// @notice This contract allows the creation of EmploymentContract instances.\ncontract EmploymentContractFactory {\n\n    EmploymentContract[] public employmentContracts; // Array of contracts\n\n    /// @notice Event for contract creation\n    /// @param contractAddress Address of the created contract\n    /// @param employer Employer's address\n    event ContractCreated(address contractAddress, address employer);\n\n    /// @notice Function to create a new contract\n    /// @param _salary Monthly salary\n    /// @param _bonus Bonus\n    /// @param _vacationPay Vacation pay\n    /// @param _sickLeavePay Sick leave pay\n    /// @param _startDate Contract start date\n    /// @param _endDate Contract end date\n    /// @param _penalty Penalty for contract termination\n    function createEmploymentContract(\n        uint256 _salary,\n        uint256 _bonus,\n        uint256 _vacationPay,\n        uint256 _sickLeavePay,\n        uint256 _startDate,\n        uint256 _endDate,\n        uint256 _penalty,\n        uint256 _paymentInterval,\n        address _reserve\n    ) public {\n        EmploymentContract newContract = new EmploymentContract(\n            msg.sender,\n            _salary,\n            _bonus,\n            _vacationPay,\n            _sickLeavePay,\n            _startDate,\n            _endDate,\n            _penalty,\n            _paymentInterval,\n            _reserve\n        );\n        employmentContracts.push(newContract);\n        emit ContractCreated(address(newContract), msg.sender);\n    }\n\n    /// @notice Function to get all created contracts\n    /// @return Array of contracts\n    function getContracts() public view returns (EmploymentContract[] memory) {\n        return employmentContracts;\n    }\n}\n",
  "sourcePath": "/Users/denisberesnev/Desktop/Blockchain/smart-contract/contracts/Employment.sol",
  "compiler": {
    "name": "solc",
    "version": "0.8.0+commit.c7dfd78e.Emscripten.clang"
  },
  "schemaVersion": "3.4.16",
  "updatedAt": "2024-06-08T14:56:07.427Z",
  "networkType": "ethereum",
  "devdoc": {
    "events": {
      "ContractCreated(address,address)": {
        "params": {
          "contractAddress": "Address of the created contract",
          "employer": "Employer's address"
        }
      }
    },
    "kind": "dev",
    "methods": {
      "createEmploymentContract(uint256,uint256,uint256,uint256,uint256,uint256,uint256,uint256,address)": {
        "params": {
          "_bonus": "Bonus",
          "_endDate": "Contract end date",
          "_penalty": "Penalty for contract termination",
          "_salary": "Monthly salary",
          "_sickLeavePay": "Sick leave pay",
          "_startDate": "Contract start date",
          "_vacationPay": "Vacation pay"
        }
      },
      "getContracts()": {
        "returns": {
          "_0": "Array of contracts"
        }
      }
    },
    "title": "Employment Contract Factory",
    "version": 1
  },
  "userdoc": {
    "events": {
      "ContractCreated(address,address)": {
        "notice": "Event for contract creation"
      }
    },
    "kind": "user",
    "methods": {
      "createEmploymentContract(uint256,uint256,uint256,uint256,uint256,uint256,uint256,uint256,address)": {
        "notice": "Function to create a new contract"
      },
      "getContracts()": {
        "notice": "Function to get all created contracts"
      }
    },
    "notice": "This contract allows the creation of EmploymentContract instances.",
    "version": 1
  }
}